{
  "_format": "hh-sol-artifact-1",
  "contractName": "PlatziPunks",
  "sourceName": "contracts/PlatziPunks.sol",
  "abi": [
    {
      "inputs": [
        {
          "internalType": "uint256",
          "name": "_maxSupply",
          "type": "uint256"
        }
      ],
      "stateMutability": "nonpayable",
      "type": "constructor"
    },
    {
      "anonymous": false,
      "inputs": [
        {
          "indexed": true,
          "internalType": "address",
          "name": "owner",
          "type": "address"
        },
        {
          "indexed": true,
          "internalType": "address",
          "name": "approved",
          "type": "address"
        },
        {
          "indexed": true,
          "internalType": "uint256",
          "name": "tokenId",
          "type": "uint256"
        }
      ],
      "name": "Approval",
      "type": "event"
    },
    {
      "anonymous": false,
      "inputs": [
        {
          "indexed": true,
          "internalType": "address",
          "name": "owner",
          "type": "address"
        },
        {
          "indexed": true,
          "internalType": "address",
          "name": "operator",
          "type": "address"
        },
        {
          "indexed": false,
          "internalType": "bool",
          "name": "approved",
          "type": "bool"
        }
      ],
      "name": "ApprovalForAll",
      "type": "event"
    },
    {
      "anonymous": false,
      "inputs": [
        {
          "indexed": true,
          "internalType": "address",
          "name": "from",
          "type": "address"
        },
        {
          "indexed": true,
          "internalType": "address",
          "name": "to",
          "type": "address"
        },
        {
          "indexed": true,
          "internalType": "uint256",
          "name": "tokenId",
          "type": "uint256"
        }
      ],
      "name": "Transfer",
      "type": "event"
    },
    {
      "inputs": [
        {
          "internalType": "address",
          "name": "to",
          "type": "address"
        },
        {
          "internalType": "uint256",
          "name": "tokenId",
          "type": "uint256"
        }
      ],
      "name": "approve",
      "outputs": [],
      "stateMutability": "nonpayable",
      "type": "function"
    },
    {
      "inputs": [
        {
          "internalType": "address",
          "name": "owner",
          "type": "address"
        }
      ],
      "name": "balanceOf",
      "outputs": [
        {
          "internalType": "uint256",
          "name": "",
          "type": "uint256"
        }
      ],
      "stateMutability": "view",
      "type": "function"
    },
    {
      "inputs": [
        {
          "internalType": "uint256",
          "name": "_idToken",
          "type": "uint256"
        },
        {
          "internalType": "address",
          "name": "_minter",
          "type": "address"
        }
      ],
      "name": "deterministicPseudoRandomDNA",
      "outputs": [
        {
          "internalType": "uint256",
          "name": "",
          "type": "uint256"
        }
      ],
      "stateMutability": "pure",
      "type": "function"
    },
    {
      "inputs": [
        {
          "internalType": "uint256",
          "name": "_dna",
          "type": "uint256"
        }
      ],
      "name": "getAccessoriesType",
      "outputs": [
        {
          "internalType": "string",
          "name": "",
          "type": "string"
        }
      ],
      "stateMutability": "view",
      "type": "function"
    },
    {
      "inputs": [
        {
          "internalType": "uint256",
          "name": "tokenId",
          "type": "uint256"
        }
      ],
      "name": "getApproved",
      "outputs": [
        {
          "internalType": "address",
          "name": "",
          "type": "address"
        }
      ],
      "stateMutability": "view",
      "type": "function"
    },
    {
      "inputs": [
        {
          "internalType": "uint256",
          "name": "_dna",
          "type": "uint256"
        }
      ],
      "name": "getClotheColor",
      "outputs": [
        {
          "internalType": "string",
          "name": "",
          "type": "string"
        }
      ],
      "stateMutability": "view",
      "type": "function"
    },
    {
      "inputs": [
        {
          "internalType": "uint256",
          "name": "_dna",
          "type": "uint256"
        }
      ],
      "name": "getClotheType",
      "outputs": [
        {
          "internalType": "string",
          "name": "",
          "type": "string"
        }
      ],
      "stateMutability": "view",
      "type": "function"
    },
    {
      "inputs": [
        {
          "internalType": "uint256",
          "name": "_dna",
          "type": "uint256"
        }
      ],
      "name": "getEyeBrowType",
      "outputs": [
        {
          "internalType": "string",
          "name": "",
          "type": "string"
        }
      ],
      "stateMutability": "view",
      "type": "function"
    },
    {
      "inputs": [
        {
          "internalType": "uint256",
          "name": "_dna",
          "type": "uint256"
        }
      ],
      "name": "getEyeType",
      "outputs": [
        {
          "internalType": "string",
          "name": "",
          "type": "string"
        }
      ],
      "stateMutability": "view",
      "type": "function"
    },
    {
      "inputs": [
        {
          "internalType": "uint256",
          "name": "_dna",
          "type": "uint256"
        }
      ],
      "name": "getFacialHairColor",
      "outputs": [
        {
          "internalType": "string",
          "name": "",
          "type": "string"
        }
      ],
      "stateMutability": "view",
      "type": "function"
    },
    {
      "inputs": [
        {
          "internalType": "uint256",
          "name": "_dna",
          "type": "uint256"
        }
      ],
      "name": "getFacialHairType",
      "outputs": [
        {
          "internalType": "string",
          "name": "",
          "type": "string"
        }
      ],
      "stateMutability": "view",
      "type": "function"
    },
    {
      "inputs": [
        {
          "internalType": "uint256",
          "name": "_dna",
          "type": "uint256"
        }
      ],
      "name": "getGraphicType",
      "outputs": [
        {
          "internalType": "string",
          "name": "",
          "type": "string"
        }
      ],
      "stateMutability": "view",
      "type": "function"
    },
    {
      "inputs": [
        {
          "internalType": "uint256",
          "name": "_dna",
          "type": "uint256"
        }
      ],
      "name": "getHairColor",
      "outputs": [
        {
          "internalType": "string",
          "name": "",
          "type": "string"
        }
      ],
      "stateMutability": "view",
      "type": "function"
    },
    {
      "inputs": [
        {
          "internalType": "uint256",
          "name": "_dna",
          "type": "uint256"
        }
      ],
      "name": "getHatColor",
      "outputs": [
        {
          "internalType": "string",
          "name": "",
          "type": "string"
        }
      ],
      "stateMutability": "view",
      "type": "function"
    },
    {
      "inputs": [
        {
          "internalType": "uint256",
          "name": "_dna",
          "type": "uint256"
        }
      ],
      "name": "getMouthType",
      "outputs": [
        {
          "internalType": "string",
          "name": "",
          "type": "string"
        }
      ],
      "stateMutability": "view",
      "type": "function"
    },
    {
      "inputs": [
        {
          "internalType": "uint256",
          "name": "_dna",
          "type": "uint256"
        }
      ],
      "name": "getSkinColor",
      "outputs": [
        {
          "internalType": "string",
          "name": "",
          "type": "string"
        }
      ],
      "stateMutability": "view",
      "type": "function"
    },
    {
      "inputs": [
        {
          "internalType": "uint256",
          "name": "_dna",
          "type": "uint256"
        }
      ],
      "name": "getTopType",
      "outputs": [
        {
          "internalType": "string",
          "name": "",
          "type": "string"
        }
      ],
      "stateMutability": "view",
      "type": "function"
    },
    {
      "inputs": [
        {
          "internalType": "uint256",
          "name": "_dna",
          "type": "uint256"
        }
      ],
      "name": "imageByDNA",
      "outputs": [
        {
          "internalType": "string",
          "name": "",
          "type": "string"
        }
      ],
      "stateMutability": "view",
      "type": "function"
    },
    {
      "inputs": [
        {
          "internalType": "address",
          "name": "owner",
          "type": "address"
        },
        {
          "internalType": "address",
          "name": "operator",
          "type": "address"
        }
      ],
      "name": "isApprovedForAll",
      "outputs": [
        {
          "internalType": "bool",
          "name": "",
          "type": "bool"
        }
      ],
      "stateMutability": "view",
      "type": "function"
    },
    {
      "inputs": [],
      "name": "maxSupply",
      "outputs": [
        {
          "internalType": "uint256",
          "name": "",
          "type": "uint256"
        }
      ],
      "stateMutability": "view",
      "type": "function"
    },
    {
      "inputs": [],
      "name": "mint",
      "outputs": [],
      "stateMutability": "nonpayable",
      "type": "function"
    },
    {
      "inputs": [],
      "name": "name",
      "outputs": [
        {
          "internalType": "string",
          "name": "",
          "type": "string"
        }
      ],
      "stateMutability": "view",
      "type": "function"
    },
    {
      "inputs": [
        {
          "internalType": "uint256",
          "name": "tokenId",
          "type": "uint256"
        }
      ],
      "name": "ownerOf",
      "outputs": [
        {
          "internalType": "address",
          "name": "",
          "type": "address"
        }
      ],
      "stateMutability": "view",
      "type": "function"
    },
    {
      "inputs": [
        {
          "internalType": "address",
          "name": "from",
          "type": "address"
        },
        {
          "internalType": "address",
          "name": "to",
          "type": "address"
        },
        {
          "internalType": "uint256",
          "name": "tokenId",
          "type": "uint256"
        }
      ],
      "name": "safeTransferFrom",
      "outputs": [],
      "stateMutability": "nonpayable",
      "type": "function"
    },
    {
      "inputs": [
        {
          "internalType": "address",
          "name": "from",
          "type": "address"
        },
        {
          "internalType": "address",
          "name": "to",
          "type": "address"
        },
        {
          "internalType": "uint256",
          "name": "tokenId",
          "type": "uint256"
        },
        {
          "internalType": "bytes",
          "name": "_data",
          "type": "bytes"
        }
      ],
      "name": "safeTransferFrom",
      "outputs": [],
      "stateMutability": "nonpayable",
      "type": "function"
    },
    {
      "inputs": [
        {
          "internalType": "address",
          "name": "operator",
          "type": "address"
        },
        {
          "internalType": "bool",
          "name": "approved",
          "type": "bool"
        }
      ],
      "name": "setApprovalForAll",
      "outputs": [],
      "stateMutability": "nonpayable",
      "type": "function"
    },
    {
      "inputs": [
        {
          "internalType": "bytes4",
          "name": "interfaceId",
          "type": "bytes4"
        }
      ],
      "name": "supportsInterface",
      "outputs": [
        {
          "internalType": "bool",
          "name": "",
          "type": "bool"
        }
      ],
      "stateMutability": "view",
      "type": "function"
    },
    {
      "inputs": [],
      "name": "symbol",
      "outputs": [
        {
          "internalType": "string",
          "name": "",
          "type": "string"
        }
      ],
      "stateMutability": "view",
      "type": "function"
    },
    {
      "inputs": [
        {
          "internalType": "uint256",
          "name": "index",
          "type": "uint256"
        }
      ],
      "name": "tokenByIndex",
      "outputs": [
        {
          "internalType": "uint256",
          "name": "",
          "type": "uint256"
        }
      ],
      "stateMutability": "view",
      "type": "function"
    },
    {
      "inputs": [
        {
          "internalType": "uint256",
          "name": "",
          "type": "uint256"
        }
      ],
      "name": "tokenDNA",
      "outputs": [
        {
          "internalType": "uint256",
          "name": "",
          "type": "uint256"
        }
      ],
      "stateMutability": "view",
      "type": "function"
    },
    {
      "inputs": [
        {
          "internalType": "address",
          "name": "owner",
          "type": "address"
        },
        {
          "internalType": "uint256",
          "name": "index",
          "type": "uint256"
        }
      ],
      "name": "tokenOfOwnerByIndex",
      "outputs": [
        {
          "internalType": "uint256",
          "name": "",
          "type": "uint256"
        }
      ],
      "stateMutability": "view",
      "type": "function"
    },
    {
      "inputs": [
        {
          "internalType": "uint256",
          "name": "tokenId",
          "type": "uint256"
        }
      ],
      "name": "tokenURI",
      "outputs": [
        {
          "internalType": "string",
          "name": "",
          "type": "string"
        }
      ],
      "stateMutability": "view",
      "type": "function"
    },
    {
      "inputs": [],
      "name": "totalSupply",
      "outputs": [
        {
          "internalType": "uint256",
          "name": "",
          "type": "uint256"
        }
      ],
      "stateMutability": "view",
      "type": "function"
    },
    {
      "inputs": [
        {
          "internalType": "address",
          "name": "from",
          "type": "address"
        },
        {
          "internalType": "address",
          "name": "to",
          "type": "address"
        },
        {
          "internalType": "uint256",
          "name": "tokenId",
          "type": "uint256"
        }
      ],
      "name": "transferFrom",
      "outputs": [],
      "stateMutability": "nonpayable",
      "type": "function"
    }
  ],
  "bytecode": "0x60806040526040518060e001604052806040518060400160405280600581526020017f426c616e6b00000000000000000000000000000000000000000000000000000081525081526020016040518060400160405280600481526020017f4b7572740000000000000000000000000000000000000000000000000000000081525081526020016040518060400160405280600e81526020017f507265736372697074696f6e303100000000000000000000000000000000000081525081526020016040518060400160405280600e81526020017f507265736372697074696f6e303200000000000000000000000000000000000081525081526020016040518060400160405280600581526020017f526f756e6400000000000000000000000000000000000000000000000000000081525081526020016040518060400160405280600a81526020017f53756e676c61737365730000000000000000000000000000000000000000000081525081526020016040518060400160405280600981526020017f5761796661726572730000000000000000000000000000000000000000000000815250815250600a906007620001bc92919062002700565b50604051806101e001604052806040518060400160405280600581526020017f426c61636b00000000000000000000000000000000000000000000000000000081525081526020016040518060400160405280600681526020017f426c75653031000000000000000000000000000000000000000000000000000081525081526020016040518060400160405280600681526020017f426c75653032000000000000000000000000000000000000000000000000000081525081526020016040518060400160405280600681526020017f426c75653033000000000000000000000000000000000000000000000000000081525081526020016040518060400160405280600681526020017f477261793031000000000000000000000000000000000000000000000000000081525081526020016040518060400160405280600681526020017f477261793032000000000000000000000000000000000000000000000000000081525081526020016040518060400160405280600781526020017f486561746865720000000000000000000000000000000000000000000000000081525081526020016040518060400160405280600a81526020017f50617374656c426c75650000000000000000000000000000000000000000000081525081526020016040518060400160405280600b81526020017f50617374656c477265656e00000000000000000000000000000000000000000081525081526020016040518060400160405280600c81526020017f50617374656c4f72616e6765000000000000000000000000000000000000000081525081526020016040518060400160405280600981526020017f50617374656c526564000000000000000000000000000000000000000000000081525081526020016040518060400160405280600c81526020017f50617374656c59656c6c6f77000000000000000000000000000000000000000081525081526020016040518060400160405280600481526020017f50696e6b0000000000000000000000000000000000000000000000000000000081525081526020016040518060400160405280600381526020017f526564000000000000000000000000000000000000000000000000000000000081525081526020016040518060400160405280600581526020017f5768697465000000000000000000000000000000000000000000000000000000815250815250600b90600f6200054e92919062002767565b506040518061012001604052806040518060400160405280600b81526020017f426c617a6572536869727400000000000000000000000000000000000000000081525081526020016040518060400160405280600d81526020017f426c617a6572537765617465720000000000000000000000000000000000000081525081526020016040518060400160405280600d81526020017f436f6c6c6172537765617465720000000000000000000000000000000000000081525081526020016040518060400160405280600c81526020017f477261706869635368697274000000000000000000000000000000000000000081525081526020016040518060400160405280600681526020017f486f6f646965000000000000000000000000000000000000000000000000000081525081526020016040518060400160405280600781526020017f4f766572616c6c0000000000000000000000000000000000000000000000000081525081526020016040518060400160405280600d81526020017f5368697274437265774e65636b0000000000000000000000000000000000000081525081526020016040518060400160405280600e81526020017f536869727453636f6f704e65636b00000000000000000000000000000000000081525081526020016040518060400160405280600a81526020017f5368697274564e65636b00000000000000000000000000000000000000000000815250815250600c9060096200077e929190620027ce565b506040518061018001604052806040518060400160405280600581526020017f436c6f736500000000000000000000000000000000000000000000000000000081525081526020016040518060400160405280600381526020017f437279000000000000000000000000000000000000000000000000000000000081525081526020016040518060400160405280600781526020017f44656661756c740000000000000000000000000000000000000000000000000081525081526020016040518060400160405280600581526020017f44697a7a7900000000000000000000000000000000000000000000000000000081525081526020016040518060400160405280600781526020017f457965526f6c6c0000000000000000000000000000000000000000000000000081525081526020016040518060400160405280600581526020017f486170707900000000000000000000000000000000000000000000000000000081525081526020016040518060400160405280600681526020017f486561727473000000000000000000000000000000000000000000000000000081525081526020016040518060400160405280600481526020017f536964650000000000000000000000000000000000000000000000000000000081525081526020016040518060400160405280600681526020017f537175696e74000000000000000000000000000000000000000000000000000081525081526020016040518060400160405280600981526020017f537572707269736564000000000000000000000000000000000000000000000081525081526020016040518060400160405280600481526020017f57696e6b0000000000000000000000000000000000000000000000000000000081525081526020016040518060400160405280600981526020017f57696e6b5761636b790000000000000000000000000000000000000000000000815250815250600d90600c62000a5f92919062002835565b506040518061018001604052806040518060400160405280600581526020017f416e67727900000000000000000000000000000000000000000000000000000081525081526020016040518060400160405280600c81526020017f416e6772794e61747572616c000000000000000000000000000000000000000081525081526020016040518060400160405280600781526020017f44656661756c740000000000000000000000000000000000000000000000000081525081526020016040518060400160405280600e81526020017f44656661756c744e61747572616c00000000000000000000000000000000000081525081526020016040518060400160405280600b81526020017f466c61744e61747572616c00000000000000000000000000000000000000000081525081526020016040518060400160405280600d81526020017f526169736564457863697465640000000000000000000000000000000000000081525081526020016040518060400160405280601481526020017f526169736564457863697465644e61747572616c00000000000000000000000081525081526020016040518060400160405280600c81526020017f536164436f6e6365726e6564000000000000000000000000000000000000000081525081526020016040518060400160405280601381526020017f536164436f6e6365726e65644e61747572616c0000000000000000000000000081525081526020016040518060400160405280600e81526020017f556e6962726f774e61747572616c00000000000000000000000000000000000081525081526020016040518060400160405280600681526020017f5570446f776e000000000000000000000000000000000000000000000000000081525081526020016040518060400160405280600d81526020017f5570446f776e4e61747572616c00000000000000000000000000000000000000815250815250600e90600c62000d4092919062002835565b506040518061010001604052806040518060400160405280600681526020017f41756275726e000000000000000000000000000000000000000000000000000081525081526020016040518060400160405280600581526020017f426c61636b00000000000000000000000000000000000000000000000000000081525081526020016040518060400160405280600681526020017f426c6f6e6465000000000000000000000000000000000000000000000000000081525081526020016040518060400160405280600c81526020017f426c6f6e6465476f6c64656e000000000000000000000000000000000000000081525081526020016040518060400160405280600581526020017f42726f776e00000000000000000000000000000000000000000000000000000081525081526020016040518060400160405280600981526020017f42726f776e4461726b000000000000000000000000000000000000000000000081525081526020016040518060400160405280600881526020017f506c6174696e756d00000000000000000000000000000000000000000000000081525081526020016040518060400160405280600381526020017f5265640000000000000000000000000000000000000000000000000000000000815250815250600f90600862000f359291906200289c565b506040518060c001604052806040518060400160405280600581526020017f426c616e6b00000000000000000000000000000000000000000000000000000081525081526020016040518060400160405280600b81526020017f42656172644d656469756d00000000000000000000000000000000000000000081525081526020016040518060400160405280600a81526020017f42656172644c696768740000000000000000000000000000000000000000000081525081526020016040518060400160405280600d81526020017f42656172644d616765737469630000000000000000000000000000000000000081525081526020016040518060400160405280600e81526020017f4d6f7573746163686546616e637900000000000000000000000000000000000081525081526020016040518060400160405280600f81526020017f4d6f757374616368654d61676e756d00000000000000000000000000000000008152508152506010906006620010b392919062002903565b506040518061014001604052806040518060400160405280600681526020017f41756275726e000000000000000000000000000000000000000000000000000081525081526020016040518060400160405280600581526020017f426c61636b00000000000000000000000000000000000000000000000000000081525081526020016040518060400160405280600681526020017f426c6f6e6465000000000000000000000000000000000000000000000000000081525081526020016040518060400160405280600c81526020017f426c6f6e6465476f6c64656e000000000000000000000000000000000000000081525081526020016040518060400160405280600581526020017f42726f776e00000000000000000000000000000000000000000000000000000081525081526020016040518060400160405280600981526020017f42726f776e4461726b000000000000000000000000000000000000000000000081525081526020016040518060400160405280600a81526020017f50617374656c50696e6b0000000000000000000000000000000000000000000081525081526020016040518060400160405280600881526020017f506c6174696e756d00000000000000000000000000000000000000000000000081525081526020016040518060400160405280600381526020017f526564000000000000000000000000000000000000000000000000000000000081525081526020016040518060400160405280600a81526020017f53696c7665724772617900000000000000000000000000000000000000000000815250815250601190600a6200131e9291906200296a565b50604051806101e001604052806040518060400160405280600581526020017f426c61636b00000000000000000000000000000000000000000000000000000081525081526020016040518060400160405280600681526020017f426c75653031000000000000000000000000000000000000000000000000000081525081526020016040518060400160405280600681526020017f426c75653032000000000000000000000000000000000000000000000000000081525081526020016040518060400160405280600681526020017f426c75653033000000000000000000000000000000000000000000000000000081525081526020016040518060400160405280600681526020017f477261793031000000000000000000000000000000000000000000000000000081525081526020016040518060400160405280600681526020017f477261793032000000000000000000000000000000000000000000000000000081525081526020016040518060400160405280600781526020017f486561746865720000000000000000000000000000000000000000000000000081525081526020016040518060400160405280600a81526020017f50617374656c426c75650000000000000000000000000000000000000000000081525081526020016040518060400160405280600b81526020017f50617374656c477265656e00000000000000000000000000000000000000000081525081526020016040518060400160405280600c81526020017f50617374656c4f72616e6765000000000000000000000000000000000000000081525081526020016040518060400160405280600981526020017f50617374656c526564000000000000000000000000000000000000000000000081525081526020016040518060400160405280600c81526020017f50617374656c59656c6c6f77000000000000000000000000000000000000000081525081526020016040518060400160405280600481526020017f50696e6b0000000000000000000000000000000000000000000000000000000081525081526020016040518060400160405280600381526020017f526564000000000000000000000000000000000000000000000000000000000081525081526020016040518060400160405280600581526020017f5768697465000000000000000000000000000000000000000000000000000000815250815250601290600f620016b092919062002767565b506040518061016001604052806040518060400160405280600381526020017f426174000000000000000000000000000000000000000000000000000000000081525081526020016040518060400160405280600681526020017f43756d626961000000000000000000000000000000000000000000000000000081525081526020016040518060400160405280600481526020017f446565720000000000000000000000000000000000000000000000000000000081525081526020016040518060400160405280600781526020017f4469616d6f6e640000000000000000000000000000000000000000000000000081525081526020016040518060400160405280600481526020017f486f6c610000000000000000000000000000000000000000000000000000000081525081526020016040518060400160405280600581526020017f50697a7a6100000000000000000000000000000000000000000000000000000081525081526020016040518060400160405280600681526020017f526573697374000000000000000000000000000000000000000000000000000081525081526020016040518060400160405280600681526020017f53656c656e61000000000000000000000000000000000000000000000000000081525081526020016040518060400160405280600481526020017f426561720000000000000000000000000000000000000000000000000000000081525081526020016040518060400160405280600c81526020017f536b756c6c4f75746c696e65000000000000000000000000000000000000000081525081526020016040518060400160405280600581526020017f536b756c6c000000000000000000000000000000000000000000000000000000815250815250601390600b62001956929190620029d1565b506040518061018001604052806040518060400160405280600981526020017f436f6e6365726e6564000000000000000000000000000000000000000000000081525081526020016040518060400160405280600781526020017f44656661756c740000000000000000000000000000000000000000000000000081525081526020016040518060400160405280600981526020017f44697362656c696566000000000000000000000000000000000000000000000081525081526020016040518060400160405280600681526020017f456174696e67000000000000000000000000000000000000000000000000000081525081526020016040518060400160405280600781526020017f4772696d6163650000000000000000000000000000000000000000000000000081525081526020016040518060400160405280600381526020017f536164000000000000000000000000000000000000000000000000000000000081525081526020016040518060400160405280600a81526020017f53637265616d4f70656e0000000000000000000000000000000000000000000081525081526020016040518060400160405280600781526020017f536572696f75730000000000000000000000000000000000000000000000000081525081526020016040518060400160405280600581526020017f536d696c6500000000000000000000000000000000000000000000000000000081525081526020016040518060400160405280600681526020017f546f6e677565000000000000000000000000000000000000000000000000000081525081526020016040518060400160405280600781526020017f5477696e6b6c650000000000000000000000000000000000000000000000000081525081526020016040518060400160405280600581526020017f566f6d6974000000000000000000000000000000000000000000000000000000815250815250601490600c62001c3792919062002835565b506040518060e001604052806040518060400160405280600681526020017f54616e6e6564000000000000000000000000000000000000000000000000000081525081526020016040518060400160405280600681526020017f59656c6c6f77000000000000000000000000000000000000000000000000000081525081526020016040518060400160405280600481526020017f50616c650000000000000000000000000000000000000000000000000000000081525081526020016040518060400160405280600581526020017f4c6967687400000000000000000000000000000000000000000000000000000081525081526020016040518060400160405280600581526020017f42726f776e00000000000000000000000000000000000000000000000000000081525081526020016040518060400160405280600981526020017f4461726b42726f776e000000000000000000000000000000000000000000000081525081526020016040518060400160405280600581526020017f426c61636b000000000000000000000000000000000000000000000000000000815250815250601590600762001df092919062002700565b506040518061046001604052806040518060400160405280600681526020017f4e6f48616972000000000000000000000000000000000000000000000000000081525081526020016040518060400160405280600881526020017f457965706174636800000000000000000000000000000000000000000000000081525081526020016040518060400160405280600381526020017f486174000000000000000000000000000000000000000000000000000000000081525081526020016040518060400160405280600581526020017f48696a616200000000000000000000000000000000000000000000000000000081525081526020016040518060400160405280600681526020017f54757262616e000000000000000000000000000000000000000000000000000081525081526020016040518060400160405280600a81526020017f57696e746572486174310000000000000000000000000000000000000000000081525081526020016040518060400160405280600a81526020017f57696e746572486174320000000000000000000000000000000000000000000081525081526020016040518060400160405280600a81526020017f57696e746572486174330000000000000000000000000000000000000000000081525081526020016040518060400160405280600a81526020017f57696e746572486174340000000000000000000000000000000000000000000081525081526020016040518060400160405280600f81526020017f4c6f6e674861697242696748616972000000000000000000000000000000000081525081526020016040518060400160405280600b81526020017f4c6f6e6748616972426f6200000000000000000000000000000000000000000081525081526020016040518060400160405280600b81526020017f4c6f6e674861697242756e00000000000000000000000000000000000000000081525081526020016040518060400160405280600d81526020017f4c6f6e67486169724375726c790000000000000000000000000000000000000081525081526020016040518060400160405280600d81526020017f4c6f6e674861697243757276790000000000000000000000000000000000000081525081526020016040518060400160405280600e81526020017f4c6f6e674861697244726561647300000000000000000000000000000000000081525081526020016040518060400160405280600d81526020017f4c6f6e674861697246726964610000000000000000000000000000000000000081525081526020016040518060400160405280600b81526020017f4c6f6e674861697246726f00000000000000000000000000000000000000000081525081526020016040518060400160405280600f81526020017f4c6f6e674861697246726f42616e64000000000000000000000000000000000081525081526020016040518060400160405280601281526020017f4c6f6e67486169724e6f74546f6f4c6f6e67000000000000000000000000000081525081526020016040518060400160405280601381526020017f4c6f6e674861697253686176656453696465730000000000000000000000000081525081526020016040518060400160405280601281526020017f4c6f6e67486169724d696157616c6c616365000000000000000000000000000081525081526020016040518060400160405280601081526020017f4c6f6e674861697253747261696768740000000000000000000000000000000081525081526020016040518060400160405280601181526020017f4c6f6e674861697253747261696768743200000000000000000000000000000081525081526020016040518060400160405280601681526020017f4c6f6e67486169725374726169676874537472616e640000000000000000000081525081526020016040518060400160405280601181526020017f53686f727448616972447265616473303100000000000000000000000000000081525081526020016040518060400160405280601181526020017f53686f727448616972447265616473303200000000000000000000000000000081525081526020016040518060400160405280601081526020017f53686f7274486169724672697a7a6c650000000000000000000000000000000081525081526020016040518060400160405280601581526020017f53686f7274486169725368616767794d756c6c6574000000000000000000000081525081526020016040518060400160405280601381526020017f53686f72744861697253686f72744375726c790000000000000000000000000081525081526020016040518060400160405280601281526020017f53686f72744861697253686f7274466c6174000000000000000000000000000081525081526020016040518060400160405280601381526020017f53686f72744861697253686f7274526f756e640000000000000000000000000081525081526020016040518060400160405280601381526020017f53686f72744861697253686f727457617665640000000000000000000000000081525081526020016040518060400160405280600e81526020017f53686f727448616972536964657300000000000000000000000000000000000081525081526020016040518060400160405280601281526020017f53686f727448616972546865436165736172000000000000000000000000000081525081526020016040518060400160405280601a81526020017f53686f727448616972546865436165736172536964655061727400000000000081525081525060169060236200261e92919062002a38565b503480156200262c57600080fd5b5060405162007be338038062007be3833981810160405281019062002652919062002bd4565b6040518060400160405280600b81526020017f506c61747a6950756e6b730000000000000000000000000000000000000000008152506040518060400160405280600581526020017f504c504b530000000000000000000000000000000000000000000000000000008152508160009080519060200190620026d692919062002a9f565b508060019080519060200190620026ef92919062002a9f565b505050806018819055505062002c89565b82805482825590600052602060002090810192821562002754579160200282015b82811115620027535782518290805190602001906200274292919062002a9f565b509160200191906001019062002721565b5b50905062002763919062002b30565b5090565b828054828255906000526020600020908101928215620027bb579160200282015b82811115620027ba578251829080519060200190620027a992919062002a9f565b509160200191906001019062002788565b5b509050620027ca919062002b30565b5090565b82805482825590600052602060002090810192821562002822579160200282015b82811115620028215782518290805190602001906200281092919062002a9f565b5091602001919060010190620027ef565b5b50905062002831919062002b30565b5090565b82805482825590600052602060002090810192821562002889579160200282015b82811115620028885782518290805190602001906200287792919062002a9f565b509160200191906001019062002856565b5b50905062002898919062002b30565b5090565b828054828255906000526020600020908101928215620028f0579160200282015b82811115620028ef578251829080519060200190620028de92919062002a9f565b5091602001919060010190620028bd565b5b509050620028ff919062002b30565b5090565b82805482825590600052602060002090810192821562002957579160200282015b82811115620029565782518290805190602001906200294592919062002a9f565b509160200191906001019062002924565b5b50905062002966919062002b30565b5090565b828054828255906000526020600020908101928215620029be579160200282015b82811115620029bd578251829080519060200190620029ac92919062002a9f565b50916020019190600101906200298b565b5b509050620029cd919062002b30565b5090565b82805482825590600052602060002090810192821562002a25579160200282015b8281111562002a2457825182908051906020019062002a1392919062002a9f565b5091602001919060010190620029f2565b5b50905062002a34919062002b30565b5090565b82805482825590600052602060002090810192821562002a8c579160200282015b8281111562002a8b57825182908051906020019062002a7a92919062002a9f565b509160200191906001019062002a59565b5b50905062002a9b919062002b30565b5090565b82805462002aad9062002c0a565b90600052602060002090601f01602090048101928262002ad1576000855562002b1d565b82601f1062002aec57805160ff191683800117855562002b1d565b8280016001018555821562002b1d579182015b8281111562002b1c57825182559160200191906001019062002aff565b5b50905062002b2c919062002b58565b5090565b5b8082111562002b54576000818162002b4a919062002b77565b5060010162002b31565b5090565b5b8082111562002b7357600081600090555060010162002b59565b5090565b50805462002b859062002c0a565b6000825580601f1062002b99575062002bba565b601f01602090049060005260206000209081019062002bb9919062002b58565b5b50565b60008151905062002bce8162002c6f565b92915050565b60006020828403121562002be757600080fd5b600062002bf78482850162002bbd565b91505092915050565b6000819050919050565b6000600282049050600182168062002c2357607f821691505b6020821081141562002c3a5762002c3962002c40565b5b50919050565b7f4e487b7100000000000000000000000000000000000000000000000000000000600052602260045260246000fd5b62002c7a8162002c00565b811462002c8657600080fd5b50565b614f4a8062002c996000396000f3fe608060405234801561001057600080fd5b50600436106102065760003560e01c80637ecaef061161011a578063b88d4fde116100ad578063cc4e56951161007c578063cc4e5695146106bb578063d5abeb01146106eb578063dac1419e14610709578063e2eced2814610739578063e985e9c51461076957610206565b8063b88d4fde1461060f578063be65d7511461062b578063c0496cf51461065b578063c87b56dd1461068b57610206565b806395d89b41116100e957806395d89b4114610575578063a22cb46514610593578063a2ec3e9e146105af578063b70930de146105df57610206565b80637ecaef06146104b557806384425a84146104e55780638602dd6a1461051557806388ee2c161461054557610206565b806323b872dd1161019d5780634f6ccce71161016c5780634f6ccce7146103c557806360d58aed146103f55780636352211e1461042557806370a082311461045557806373075aff1461048557610206565b806323b872dd1461032d5780632f745c5914610349578063425d784f1461037957806342842e0e146103a957610206565b8063095ea7b3116101d9578063095ea7b3146102b95780631249c58b146102d557806318160ddd146102df57806318a3c0d1146102fd57610206565b806301ffc9a71461020b578063039984ba1461023b57806306fdde031461026b578063081812fc14610289575b600080fd5b61022560048036038101906102209190613553565b610799565b6040516102329190613e2b565b60405180910390f35b610255600480360381019061025091906135a5565b6107ab565b6040516102629190613e46565b60405180910390f35b6102736108a3565b6040516102809190613e46565b60405180910390f35b6102a3600480360381019061029e91906135a5565b610935565b6040516102b09190613dc4565b60405180910390f35b6102d360048036038101906102ce9190613517565b6109ba565b005b6102dd610ad2565b005b6102e7610b5c565b6040516102f49190614088565b60405180910390f35b610317600480360381019061031291906135a5565b610b69565b6040516103249190613e46565b60405180910390f35b61034760048036038101906103429190613411565b610c61565b005b610363600480360381019061035e9190613517565b610cc1565b6040516103709190614088565b60405180910390f35b610393600480360381019061038e91906135a5565b610d66565b6040516103a09190613e46565b60405180910390f35b6103c360048036038101906103be9190613411565b610e5e565b005b6103df60048036038101906103da91906135a5565b610e7e565b6040516103ec9190614088565b60405180910390f35b61040f600480360381019061040a91906135a5565b610f15565b60405161041c9190613e46565b60405180910390f35b61043f600480360381019061043a91906135a5565b61100d565b60405161044c9190613dc4565b60405180910390f35b61046f600480360381019061046a91906133ac565b6110bf565b60405161047c9190614088565b60405180910390f35b61049f600480360381019061049a91906135a5565b611177565b6040516104ac9190613e46565b60405180910390f35b6104cf60048036038101906104ca91906135a5565b61126f565b6040516104dc9190613e46565b60405180910390f35b6104ff60048036038101906104fa91906135a5565b611367565b60405161050c9190613e46565b60405180910390f35b61052f600480360381019061052a91906135a5565b61145f565b60405161053c9190613e46565b60405180910390f35b61055f600480360381019061055a91906135ce565b611557565b60405161056c9190614088565b60405180910390f35b61057d6115bd565b60405161058a9190613e46565b60405180910390f35b6105ad60048036038101906105a891906134db565b61164f565b005b6105c960048036038101906105c491906135a5565b6117d0565b6040516105d69190613e46565b60405180910390f35b6105f960048036038101906105f491906135a5565b6118c8565b6040516106069190613e46565b60405180910390f35b61062960048036038101906106249190613460565b6119c0565b005b610645600480360381019061064091906135a5565b611a22565b6040516106529190614088565b60405180910390f35b610675600480360381019061067091906135a5565b611a3a565b6040516106829190613e46565b60405180910390f35b6106a560048036038101906106a091906135a5565b611b32565b6040516106b29190613e46565b60405180910390f35b6106d560048036038101906106d091906135a5565b611c01565b6040516106e29190613e46565b60405180910390f35b6106f3611cf9565b6040516107009190614088565b60405180910390f35b610723600480360381019061071e91906135a5565b611cff565b6040516107309190613e46565b60405180910390f35b610753600480360381019061074e91906135a5565b611df7565b6040516107609190613e46565b60405180910390f35b610783600480360381019061077e91906133d5565b611e3d565b6040516107909190613e2b565b60405180910390f35b60006107a482611ed1565b9050919050565b606060006107ba836008611f4b565b60ff169050600e8080549050826107d19190614572565b81548110610808577f4e487b7100000000000000000000000000000000000000000000000000000000600052603260045260246000fd5b90600052602060002001805461081d906144bc565b80601f0160208091040260200160405190810160405280929190818152602001828054610849906144bc565b80156108965780601f1061086b57610100808354040283529160200191610896565b820191906000526020600020905b81548152906001019060200180831161087957829003601f168201915b5050505050915050919050565b6060600080546108b2906144bc565b80601f01602080910402602001604051908101604052809291908181526020018280546108de906144bc565b801561092b5780601f106109005761010080835404028352916020019161092b565b820191906000526020600020905b81548152906001019060200180831161090e57829003601f168201915b5050505050905090565b600061094082611fb4565b61097f576040517f08c379a000000000000000000000000000000000000000000000000000000000815260040161097690613fc8565b60405180910390fd5b6004600083815260200190815260200160002060009054906101000a900473ffffffffffffffffffffffffffffffffffffffff169050919050565b60006109c58261100d565b90508073ffffffffffffffffffffffffffffffffffffffff168373ffffffffffffffffffffffffffffffffffffffff161415610a36576040517f08c379a0000000000000000000000000000000000000000000000000000000008152600401610a2d90614008565b60405180910390fd5b8073ffffffffffffffffffffffffffffffffffffffff16610a55612020565b73ffffffffffffffffffffffffffffffffffffffff161480610a845750610a8381610a7e612020565b611e3d565b5b610ac3576040517f08c379a0000000000000000000000000000000000000000000000000000000008152600401610aba90613f28565b60405180910390fd5b610acd8383612028565b505050565b6000610ade60176120e1565b90506018548110610b24576040517f08c379a0000000000000000000000000000000000000000000000000000000008152600401610b1b90613f48565b60405180910390fd5b610b2e8133611557565b6019600083815260200190815260200160002081905550610b4f33826120ef565b610b59601761210d565b50565b6000600880549050905090565b60606000610b78836004611f4b565b60ff169050600c808054905082610b8f9190614572565b81548110610bc6577f4e487b7100000000000000000000000000000000000000000000000000000000600052603260045260246000fd5b906000526020600020018054610bdb906144bc565b80601f0160208091040260200160405190810160405280929190818152602001828054610c07906144bc565b8015610c545780601f10610c2957610100808354040283529160200191610c54565b820191906000526020600020905b815481529060010190602001808311610c3757829003601f168201915b5050505050915050919050565b610c72610c6c612020565b82612123565b610cb1576040517f08c379a0000000000000000000000000000000000000000000000000000000008152600401610ca890614028565b60405180910390fd5b610cbc838383612201565b505050565b6000610ccc836110bf565b8210610d0d576040517f08c379a0000000000000000000000000000000000000000000000000000000008152600401610d0490613e68565b60405180910390fd5b600660008473ffffffffffffffffffffffffffffffffffffffff1673ffffffffffffffffffffffffffffffffffffffff168152602001908152602001600020600083815260200190815260200160002054905092915050565b60606000610d75836014611f4b565b60ff1690506014808054905082610d8c9190614572565b81548110610dc3577f4e487b7100000000000000000000000000000000000000000000000000000000600052603260045260246000fd5b906000526020600020018054610dd8906144bc565b80601f0160208091040260200160405190810160405280929190818152602001828054610e04906144bc565b8015610e515780601f10610e2657610100808354040283529160200191610e51565b820191906000526020600020905b815481529060010190602001808311610e3457829003601f168201915b5050505050915050919050565b610e79838383604051806020016040528060008152506119c0565b505050565b6000610e88610b5c565b8210610ec9576040517f08c379a0000000000000000000000000000000000000000000000000000000008152600401610ec090614048565b60405180910390fd5b60088281548110610f03577f4e487b7100000000000000000000000000000000000000000000000000000000600052603260045260246000fd5b90600052602060002001549050919050565b60606000610f24836018611f4b565b60ff1690506016808054905082610f3b9190614572565b81548110610f72577f4e487b7100000000000000000000000000000000000000000000000000000000600052603260045260246000fd5b906000526020600020018054610f87906144bc565b80601f0160208091040260200160405190810160405280929190818152602001828054610fb3906144bc565b80156110005780601f10610fd557610100808354040283529160200191611000565b820191906000526020600020905b815481529060010190602001808311610fe357829003601f168201915b5050505050915050919050565b6000806002600084815260200190815260200160002060009054906101000a900473ffffffffffffffffffffffffffffffffffffffff169050600073ffffffffffffffffffffffffffffffffffffffff168173ffffffffffffffffffffffffffffffffffffffff1614156110b6576040517f08c379a00000000000000000000000000000000000000000000000000000000081526004016110ad90613f88565b60405180910390fd5b80915050919050565b60008073ffffffffffffffffffffffffffffffffffffffff168273ffffffffffffffffffffffffffffffffffffffff161415611130576040517f08c379a000000000000000000000000000000000000000000000000000000000815260040161112790613f68565b60405180910390fd5b600360008373ffffffffffffffffffffffffffffffffffffffff1673ffffffffffffffffffffffffffffffffffffffff168152602001908152602001600020549050919050565b60606000611186836016611f4b565b60ff169050601580805490508261119d9190614572565b815481106111d4577f4e487b7100000000000000000000000000000000000000000000000000000000600052603260045260246000fd5b9060005260206000200180546111e9906144bc565b80601f0160208091040260200160405190810160405280929190818152602001828054611215906144bc565b80156112625780601f1061123757610100808354040283529160200191611262565b820191906000526020600020905b81548152906001019060200180831161124557829003601f168201915b5050505050915050919050565b6060600061127e836000611f4b565b60ff169050600a8080549050826112959190614572565b815481106112cc577f4e487b7100000000000000000000000000000000000000000000000000000000600052603260045260246000fd5b9060005260206000200180546112e1906144bc565b80601f016020809104026020016040519081016040528092919081815260200182805461130d906144bc565b801561135a5780601f1061132f5761010080835404028352916020019161135a565b820191906000526020600020905b81548152906001019060200180831161133d57829003601f168201915b5050505050915050919050565b60606000611376836006611f4b565b60ff169050600d80805490508261138d9190614572565b815481106113c4577f4e487b7100000000000000000000000000000000000000000000000000000000600052603260045260246000fd5b9060005260206000200180546113d9906144bc565b80601f0160208091040260200160405190810160405280929190818152602001828054611405906144bc565b80156114525780601f1061142757610100808354040283529160200191611452565b820191906000526020600020905b81548152906001019060200180831161143557829003601f168201915b5050505050915050919050565b6060600061146e836012611f4b565b60ff16905060138080549050826114859190614572565b815481106114bc577f4e487b7100000000000000000000000000000000000000000000000000000000600052603260045260246000fd5b9060005260206000200180546114d1906144bc565b80601f01602080910402602001604051908101604052809291908181526020018280546114fd906144bc565b801561154a5780601f1061151f5761010080835404028352916020019161154a565b820191906000526020600020905b81548152906001019060200180831161152d57829003601f168201915b5050505050915050919050565b6000808273ffffffffffffffffffffffffffffffffffffffff168461157c919061413c565b90506000816040516020016115919190613da9565b60405160208183030381529060405290506000818051906020012090508060001c935050505092915050565b6060600180546115cc906144bc565b80601f01602080910402602001604051908101604052809291908181526020018280546115f8906144bc565b80156116455780601f1061161a57610100808354040283529160200191611645565b820191906000526020600020905b81548152906001019060200180831161162857829003601f168201915b5050505050905090565b611657612020565b73ffffffffffffffffffffffffffffffffffffffff168273ffffffffffffffffffffffffffffffffffffffff1614156116c5576040517f08c379a00000000000000000000000000000000000000000000000000000000081526004016116bc90613ee8565b60405180910390fd5b80600560006116d2612020565b73ffffffffffffffffffffffffffffffffffffffff1673ffffffffffffffffffffffffffffffffffffffff16815260200190815260200160002060008473ffffffffffffffffffffffffffffffffffffffff1673ffffffffffffffffffffffffffffffffffffffff16815260200190815260200160002060006101000a81548160ff0219169083151502179055508173ffffffffffffffffffffffffffffffffffffffff1661177f612020565b73ffffffffffffffffffffffffffffffffffffffff167f17307eab39ab6107e8899845ad3d59bd9653f200f220920489ca2b5937696c31836040516117c49190613e2b565b60405180910390a35050565b606060006117df836010611f4b565b60ff16905060128080549050826117f69190614572565b8154811061182d577f4e487b7100000000000000000000000000000000000000000000000000000000600052603260045260246000fd5b906000526020600020018054611842906144bc565b80601f016020809104026020016040519081016040528092919081815260200182805461186e906144bc565b80156118bb5780601f10611890576101008083540402835291602001916118bb565b820191906000526020600020905b81548152906001019060200180831161189e57829003601f168201915b5050505050915050919050565b606060006118d783600e611f4b565b60ff16905060118080549050826118ee9190614572565b81548110611925577f4e487b7100000000000000000000000000000000000000000000000000000000600052603260045260246000fd5b90600052602060002001805461193a906144bc565b80601f0160208091040260200160405190810160405280929190818152602001828054611966906144bc565b80156119b35780601f10611988576101008083540402835291602001916119b3565b820191906000526020600020905b81548152906001019060200180831161199657829003601f168201915b5050505050915050919050565b6119d16119cb612020565b83612123565b611a10576040517f08c379a0000000000000000000000000000000000000000000000000000000008152600401611a0790614028565b60405180910390fd5b611a1c8484848461245d565b50505050565b60196020528060005260406000206000915090505481565b60606000611a49836002611f4b565b60ff169050600b808054905082611a609190614572565b81548110611a97577f4e487b7100000000000000000000000000000000000000000000000000000000600052603260045260246000fd5b906000526020600020018054611aac906144bc565b80601f0160208091040260200160405190810160405280929190818152602001828054611ad8906144bc565b8015611b255780601f10611afa57610100808354040283529160200191611b25565b820191906000526020600020905b815481529060010190602001808311611b0857829003601f168201915b5050505050915050919050565b6060611b3d82611fb4565b611b7c576040517f08c379a0000000000000000000000000000000000000000000000000000000008152600401611b7390614068565b60405180910390fd5b6000601960008481526020019081526020016000205490506000611b9f82611df7565b90506000611bd5611baf866124b9565b83604051602001611bc1929190613c18565b604051602081830303815290604052612666565b905080604051602001611be89190613d87565b6040516020818303038152906040529350505050919050565b60606000611c1083600a611f4b565b60ff169050600f808054905082611c279190614572565b81548110611c5e577f4e487b7100000000000000000000000000000000000000000000000000000000600052603260045260246000fd5b906000526020600020018054611c73906144bc565b80601f0160208091040260200160405190810160405280929190818152602001828054611c9f906144bc565b8015611cec5780601f10611cc157610100808354040283529160200191611cec565b820191906000526020600020905b815481529060010190602001808311611ccf57829003601f168201915b5050505050915050919050565b60185481565b60606000611d0e83600c611f4b565b60ff1690506010808054905082611d259190614572565b81548110611d5c577f4e487b7100000000000000000000000000000000000000000000000000000000600052603260045260246000fd5b906000526020600020018054611d71906144bc565b80601f0160208091040260200160405190810160405280929190818152602001828054611d9d906144bc565b8015611dea5780601f10611dbf57610100808354040283529160200191611dea565b820191906000526020600020905b815481529060010190602001808311611dcd57829003601f168201915b5050505050915050919050565b60606000611e03612811565b90506000611e108461284e565b90508181604051602001611e25929190613be9565b60405160208183030381529060405292505050919050565b6000600560008473ffffffffffffffffffffffffffffffffffffffff1673ffffffffffffffffffffffffffffffffffffffff16815260200190815260200160002060008373ffffffffffffffffffffffffffffffffffffffff1673ffffffffffffffffffffffffffffffffffffffff16815260200190815260200160002060009054906101000a900460ff16905092915050565b60007f780e9d63000000000000000000000000000000000000000000000000000000007bffffffffffffffffffffffffffffffffffffffffffffffffffffffff1916827bffffffffffffffffffffffffffffffffffffffffffffffffffffffff19161480611f445750611f438261291b565b5b9050919050565b6000600282611f5a9190614192565b600a611f66919061424d565b6001611f72919061436b565b600283611f7f9190614192565b600a611f8b919061424d565b6001611f97919061436b565b84611fa29190614572565b611fac91906141c9565b905092915050565b60008073ffffffffffffffffffffffffffffffffffffffff166002600084815260200190815260200160002060009054906101000a900473ffffffffffffffffffffffffffffffffffffffff1673ffffffffffffffffffffffffffffffffffffffff1614159050919050565b600033905090565b816004600083815260200190815260200160002060006101000a81548173ffffffffffffffffffffffffffffffffffffffff021916908373ffffffffffffffffffffffffffffffffffffffff160217905550808273ffffffffffffffffffffffffffffffffffffffff1661209b8361100d565b73ffffffffffffffffffffffffffffffffffffffff167f8c5be1e5ebec7d5bd14f71427d1e84f3dd0314c0f7b2291e5b200ac8c7c3b92560405160405180910390a45050565b600081600001549050919050565b6121098282604051806020016040528060008152506129fd565b5050565b6001816000016000828254019250508190555050565b600061212e82611fb4565b61216d576040517f08c379a000000000000000000000000000000000000000000000000000000000815260040161216490613f08565b60405180910390fd5b60006121788361100d565b90508073ffffffffffffffffffffffffffffffffffffffff168473ffffffffffffffffffffffffffffffffffffffff1614806121e757508373ffffffffffffffffffffffffffffffffffffffff166121cf84610935565b73ffffffffffffffffffffffffffffffffffffffff16145b806121f857506121f78185611e3d565b5b91505092915050565b8273ffffffffffffffffffffffffffffffffffffffff166122218261100d565b73ffffffffffffffffffffffffffffffffffffffff1614612277576040517f08c379a000000000000000000000000000000000000000000000000000000000815260040161226e90613fe8565b60405180910390fd5b600073ffffffffffffffffffffffffffffffffffffffff168273ffffffffffffffffffffffffffffffffffffffff1614156122e7576040517f08c379a00000000000000000000000000000000000000000000000000000000081526004016122de90613ec8565b60405180910390fd5b6122f2838383612a58565b6122fd600082612028565b6001600360008573ffffffffffffffffffffffffffffffffffffffff1673ffffffffffffffffffffffffffffffffffffffff168152602001908152602001600020600082825461234d91906143c5565b925050819055506001600360008473ffffffffffffffffffffffffffffffffffffffff1673ffffffffffffffffffffffffffffffffffffffff16815260200190815260200160002060008282546123a4919061413c565b92505081905550816002600083815260200190815260200160002060006101000a81548173ffffffffffffffffffffffffffffffffffffffff021916908373ffffffffffffffffffffffffffffffffffffffff160217905550808273ffffffffffffffffffffffffffffffffffffffff168473ffffffffffffffffffffffffffffffffffffffff167fddf252ad1be2c89b69c2b068fc378daa952ba7f163c4a11628f55a4df523b3ef60405160405180910390a4505050565b612468848484612201565b61247484848484612a68565b6124b3576040517f08c379a00000000000000000000000000000000000000000000000000000000081526004016124aa90613e88565b60405180910390fd5b50505050565b60606000821415612501576040518060400160405280600181526020017f30000000000000000000000000000000000000000000000000000000000000008152509050612661565b600082905060005b6000821461253357808061251c9061451f565b915050600a8261252c91906141c9565b9150612509565b60008167ffffffffffffffff811115612575577f4e487b7100000000000000000000000000000000000000000000000000000000600052604160045260246000fd5b6040519080825280601f01601f1916602001820160405280156125a75781602001600182028036833780820191505090505b5090505b6000851461265a576001826125c091906143c5565b9150600a856125cf9190614572565b60306125db919061413c565b60f81b818381518110612617577f4e487b7100000000000000000000000000000000000000000000000000000000600052603260045260246000fd5b60200101907effffffffffffffffffffffffffffffffffffffffffffffffffffffffffffff1916908160001a905350600a8561265391906141c9565b94506125ab565b8093505050505b919050565b60606000825114156126895760405180602001604052806000815250905061280c565b6000604051806060016040528060408152602001614ed560409139905060006003600285516126b8919061413c565b6126c291906141c9565b60046126ce919061436b565b905060006020826126df919061413c565b67ffffffffffffffff81111561271e577f4e487b7100000000000000000000000000000000000000000000000000000000600052604160045260246000fd5b6040519080825280601f01601f1916602001820160405280156127505781602001600182028036833780820191505090505b509050818152600183018586518101602084015b818310156127cb576003830192508251603f8160121c1685015160f81b8252600182019150603f81600c1c1685015160f81b8252600182019150603f8160061c1685015160f81b8252600182019150603f811685015160f81b825260018201915050612764565b6003895106600181146127e557600281146127f557612800565b613d3d60f01b6002830352612800565b603d60f81b60018303525b50505050508093505050505b919050565b60606040518060400160405280601581526020017f68747470733a2f2f6176617461616172732e696f2f0000000000000000000000815250905090565b60608061285a8361126f565b61286384611a3a565b61286c85610b69565b61287586611367565b61287e876107ab565b61288788611c01565b61289089611cff565b6128998a6118c8565b6128a28b6117d0565b6128ab8c61145f565b6128b48d610d66565b6128bd8e611177565b6040516020016128d89c9b9a99989796959493929190613c5d565b6040516020818303038152906040529050806128f384610f15565b604051602001612904929190613bba565b604051602081830303815290604052915050919050565b60007f80ac58cd000000000000000000000000000000000000000000000000000000007bffffffffffffffffffffffffffffffffffffffffffffffffffffffff1916827bffffffffffffffffffffffffffffffffffffffffffffffffffffffff191614806129e657507f5b5e139f000000000000000000000000000000000000000000000000000000007bffffffffffffffffffffffffffffffffffffffffffffffffffffffff1916827bffffffffffffffffffffffffffffffffffffffffffffffffffffffff1916145b806129f657506129f582612bff565b5b9050919050565b612a078383612c69565b612a146000848484612a68565b612a53576040517f08c379a0000000000000000000000000000000000000000000000000000000008152600401612a4a90613e88565b60405180910390fd5b505050565b612a63838383612e37565b505050565b6000612a898473ffffffffffffffffffffffffffffffffffffffff16612f4b565b15612bf2578373ffffffffffffffffffffffffffffffffffffffff1663150b7a02612ab2612020565b8786866040518563ffffffff1660e01b8152600401612ad49493929190613ddf565b602060405180830381600087803b158015612aee57600080fd5b505af1925050508015612b1f57506040513d601f19601f82011682018060405250810190612b1c919061357c565b60015b612ba2573d8060008114612b4f576040519150601f19603f3d011682016040523d82523d6000602084013e612b54565b606091505b50600081511415612b9a576040517f08c379a0000000000000000000000000000000000000000000000000000000008152600401612b9190613e88565b60405180910390fd5b805181602001fd5b63150b7a0260e01b7bffffffffffffffffffffffffffffffffffffffffffffffffffffffff1916817bffffffffffffffffffffffffffffffffffffffffffffffffffffffff191614915050612bf7565b600190505b949350505050565b60007f01ffc9a7000000000000000000000000000000000000000000000000000000007bffffffffffffffffffffffffffffffffffffffffffffffffffffffff1916827bffffffffffffffffffffffffffffffffffffffffffffffffffffffff1916149050919050565b600073ffffffffffffffffffffffffffffffffffffffff168273ffffffffffffffffffffffffffffffffffffffff161415612cd9576040517f08c379a0000000000000000000000000000000000000000000000000000000008152600401612cd090613fa8565b60405180910390fd5b612ce281611fb4565b15612d22576040517f08c379a0000000000000000000000000000000000000000000000000000000008152600401612d1990613ea8565b60405180910390fd5b612d2e60008383612a58565b6001600360008473ffffffffffffffffffffffffffffffffffffffff1673ffffffffffffffffffffffffffffffffffffffff1681526020019081526020016000206000828254612d7e919061413c565b92505081905550816002600083815260200190815260200160002060006101000a81548173ffffffffffffffffffffffffffffffffffffffff021916908373ffffffffffffffffffffffffffffffffffffffff160217905550808273ffffffffffffffffffffffffffffffffffffffff16600073ffffffffffffffffffffffffffffffffffffffff167fddf252ad1be2c89b69c2b068fc378daa952ba7f163c4a11628f55a4df523b3ef60405160405180910390a45050565b612e42838383612f5e565b600073ffffffffffffffffffffffffffffffffffffffff168373ffffffffffffffffffffffffffffffffffffffff161415612e8557612e8081612f63565b612ec4565b8173ffffffffffffffffffffffffffffffffffffffff168373ffffffffffffffffffffffffffffffffffffffff1614612ec357612ec28382612fac565b5b5b600073ffffffffffffffffffffffffffffffffffffffff168273ffffffffffffffffffffffffffffffffffffffff161415612f0757612f0281613119565b612f46565b8273ffffffffffffffffffffffffffffffffffffffff168273ffffffffffffffffffffffffffffffffffffffff1614612f4557612f44828261325c565b5b5b505050565b600080823b905060008111915050919050565b505050565b6008805490506009600083815260200190815260200160002081905550600881908060018154018082558091505060019003906000526020600020016000909190919091505550565b60006001612fb9846110bf565b612fc391906143c5565b90506000600760008481526020019081526020016000205490508181146130a8576000600660008673ffffffffffffffffffffffffffffffffffffffff1673ffffffffffffffffffffffffffffffffffffffff168152602001908152602001600020600084815260200190815260200160002054905080600660008773ffffffffffffffffffffffffffffffffffffffff1673ffffffffffffffffffffffffffffffffffffffff168152602001908152602001600020600084815260200190815260200160002081905550816007600083815260200190815260200160002081905550505b6007600084815260200190815260200160002060009055600660008573ffffffffffffffffffffffffffffffffffffffff1673ffffffffffffffffffffffffffffffffffffffff16815260200190815260200160002060008381526020019081526020016000206000905550505050565b6000600160088054905061312d91906143c5565b9050600060096000848152602001908152602001600020549050600060088381548110613183577f4e487b7100000000000000000000000000000000000000000000000000000000600052603260045260246000fd5b9060005260206000200154905080600883815481106131cb577f4e487b7100000000000000000000000000000000000000000000000000000000600052603260045260246000fd5b906000526020600020018190555081600960008381526020019081526020016000208190555060096000858152602001908152602001600020600090556008805480613240577f4e487b7100000000000000000000000000000000000000000000000000000000600052603160045260246000fd5b6001900381819060005260206000200160009055905550505050565b6000613267836110bf565b905081600660008573ffffffffffffffffffffffffffffffffffffffff1673ffffffffffffffffffffffffffffffffffffffff168152602001908152602001600020600083815260200190815260200160002081905550806007600084815260200190815260200160002081905550505050565b60006132ee6132e9846140c8565b6140a3565b90508281526020810184848401111561330657600080fd5b61331184828561447a565b509392505050565b60008135905061332881614e78565b92915050565b60008135905061333d81614e8f565b92915050565b60008135905061335281614ea6565b92915050565b60008151905061336781614ea6565b92915050565b600082601f83011261337e57600080fd5b813561338e8482602086016132db565b91505092915050565b6000813590506133a681614ebd565b92915050565b6000602082840312156133be57600080fd5b60006133cc84828501613319565b91505092915050565b600080604083850312156133e857600080fd5b60006133f685828601613319565b925050602061340785828601613319565b9150509250929050565b60008060006060848603121561342657600080fd5b600061343486828701613319565b935050602061344586828701613319565b925050604061345686828701613397565b9150509250925092565b6000806000806080858703121561347657600080fd5b600061348487828801613319565b945050602061349587828801613319565b93505060406134a687828801613397565b925050606085013567ffffffffffffffff8111156134c357600080fd5b6134cf8782880161336d565b91505092959194509250565b600080604083850312156134ee57600080fd5b60006134fc85828601613319565b925050602061350d8582860161332e565b9150509250929050565b6000806040838503121561352a57600080fd5b600061353885828601613319565b925050602061354985828601613397565b9150509250929050565b60006020828403121561356557600080fd5b600061357384828501613343565b91505092915050565b60006020828403121561358e57600080fd5b600061359c84828501613358565b91505092915050565b6000602082840312156135b757600080fd5b60006135c584828501613397565b91505092915050565b600080604083850312156135e157600080fd5b60006135ef85828601613397565b925050602061360085828601613319565b9150509250929050565b613613816143f9565b82525050565b6136228161440b565b82525050565b6000613633826140f9565b61363d818561410f565b935061364d818560208601614489565b6136568161465f565b840191505092915050565b600061366c82614104565b6136768185614120565b9350613686818560208601614489565b61368f8161465f565b840191505092915050565b60006136a582614104565b6136af8185614131565b93506136bf818560208601614489565b80840191505092915050565b60006136d8600983614131565b91506136e38261467d565b600982019050919050565b60006136fb601183614131565b9150613706826146a6565b601182019050919050565b600061371e602b83614120565b9150613729826146cf565b604082019050919050565b6000613741603283614120565b915061374c8261471e565b604082019050919050565b6000613764601c83614120565b915061376f8261476d565b602082019050919050565b6000613787600a83614131565b915061379282614796565b600a82019050919050565b60006137aa600c83614131565b91506137b5826147bf565b600c82019050919050565b60006137cd602483614120565b91506137d8826147e8565b604082019050919050565b60006137f0601983614120565b91506137fb82614837565b602082019050919050565b6000613813600b83614131565b915061381e82614860565b600b82019050919050565b6000613836602c83614120565b915061384182614889565b604082019050919050565b6000613859600d83614131565b9150613864826148d8565b600d82019050919050565b600061387c600b83614131565b915061388782614901565b600b82019050919050565b600061389f600183614131565b91506138aa8261492a565b600182019050919050565b60006138c2601883614131565b91506138cd82614953565b601882019050919050565b60006138e5603883614120565b91506138f08261497c565b604082019050919050565b6000613908601383614120565b9150613913826149cb565b602082019050919050565b600061392b602a83614120565b9150613936826149f4565b604082019050919050565b600061394e602983614120565b915061395982614a43565b604082019050919050565b6000613971600b83614131565b915061397c82614a92565b600b82019050919050565b6000613994600283614131565b915061399f82614abb565b600282019050919050565b60006139b7602083614120565b91506139c282614ae4565b602082019050919050565b60006139da607983614131565b91506139e582614b0d565b607982019050919050565b60006139fd600d83614131565b9150613a0882614ba8565b600d82019050919050565b6000613a20602c83614120565b9150613a2b82614bd1565b604082019050919050565b6000613a43602983614120565b9150613a4e82614c20565b604082019050919050565b6000613a66600983614131565b9150613a7182614c6f565b600982019050919050565b6000613a89602183614120565b9150613a9482614c98565b604082019050919050565b6000613aac600d83614131565b9150613ab782614ce7565b600d82019050919050565b6000613acf601083614131565b9150613ada82614d10565b601082019050919050565b6000613af2601d83614131565b9150613afd82614d39565b601d82019050919050565b6000613b15603183614120565b9150613b2082614d62565b604082019050919050565b6000613b38602c83614120565b9150613b4382614db1565b604082019050919050565b6000613b5b601083614131565b9150613b6682614e00565b601082019050919050565b6000613b7e603083614120565b9150613b8982614e29565b604082019050919050565b613b9d81614463565b82525050565b613bb4613baf82614463565b614568565b82525050565b6000613bc6828561369a565b9150613bd1826136cb565b9150613bdd828461369a565b91508190509392505050565b6000613bf5828561369a565b9150613c0082613892565b9150613c0c828461369a565b91508190509392505050565b6000613c23826138b5565b9150613c2f828561369a565b9150613c3a826139cd565b9150613c46828461369a565b9150613c5182613987565b91508190509392505050565b6000613c6882613ac2565b9150613c74828f61369a565b9150613c7f8261384c565b9150613c8b828e61369a565b9150613c968261379d565b9150613ca2828d61369a565b9150613cad82613a59565b9150613cb9828c61369a565b9150613cc482613a9f565b9150613cd0828b61369a565b9150613cdb826136ee565b9150613ce7828a61369a565b9150613cf282613b4e565b9150613cfe828961369a565b9150613d0982613806565b9150613d15828861369a565b9150613d208261377a565b9150613d2c828761369a565b9150613d37826139f0565b9150613d43828661369a565b9150613d4e82613964565b9150613d5a828561369a565b9150613d658261386f565b9150613d71828461369a565b91508190509d9c50505050505050505050505050565b6000613d9282613ae5565b9150613d9e828461369a565b915081905092915050565b6000613db58284613ba3565b60208201915081905092915050565b6000602082019050613dd9600083018461360a565b92915050565b6000608082019050613df4600083018761360a565b613e01602083018661360a565b613e0e6040830185613b94565b8181036060830152613e208184613628565b905095945050505050565b6000602082019050613e406000830184613619565b92915050565b60006020820190508181036000830152613e608184613661565b905092915050565b60006020820190508181036000830152613e8181613711565b9050919050565b60006020820190508181036000830152613ea181613734565b9050919050565b60006020820190508181036000830152613ec181613757565b9050919050565b60006020820190508181036000830152613ee1816137c0565b9050919050565b60006020820190508181036000830152613f01816137e3565b9050919050565b60006020820190508181036000830152613f2181613829565b9050919050565b60006020820190508181036000830152613f41816138d8565b9050919050565b60006020820190508181036000830152613f61816138fb565b9050919050565b60006020820190508181036000830152613f818161391e565b9050919050565b60006020820190508181036000830152613fa181613941565b9050919050565b60006020820190508181036000830152613fc1816139aa565b9050919050565b60006020820190508181036000830152613fe181613a13565b9050919050565b6000602082019050818103600083015261400181613a36565b9050919050565b6000602082019050818103600083015261402181613a7c565b9050919050565b6000602082019050818103600083015261404181613b08565b9050919050565b6000602082019050818103600083015261406181613b2b565b9050919050565b6000602082019050818103600083015261408181613b71565b9050919050565b600060208201905061409d6000830184613b94565b92915050565b60006140ad6140be565b90506140b982826144ee565b919050565b6000604051905090565b600067ffffffffffffffff8211156140e3576140e2614630565b5b6140ec8261465f565b9050602081019050919050565b600081519050919050565b600081519050919050565b600082825260208201905092915050565b600082825260208201905092915050565b600081905092915050565b600061414782614463565b915061415283614463565b9250827fffffffffffffffffffffffffffffffffffffffffffffffffffffffffffffffff03821115614187576141866145a3565b5b828201905092915050565b600061419d8261446d565b91506141a88361446d565b92508260ff038211156141be576141bd6145a3565b5b828201905092915050565b60006141d482614463565b91506141df83614463565b9250826141ef576141ee6145d2565b5b828204905092915050565b6000808291508390505b6001851115614244578086048111156142205761421f6145a3565b5b600185161561422f5780820291505b808102905061423d85614670565b9450614204565b94509492505050565b600061425882614463565b91506142638361446d565b92506142907fffffffffffffffffffffffffffffffffffffffffffffffffffffffffffffffff8484614298565b905092915050565b6000826142a85760019050614364565b816142b65760009050614364565b81600181146142cc57600281146142d657614305565b6001915050614364565b60ff8411156142e8576142e76145a3565b5b8360020a9150848211156142ff576142fe6145a3565b5b50614364565b5060208310610133831016604e8410600b841016171561433a5782820a905083811115614335576143346145a3565b5b614364565b61434784848460016141fa565b9250905081840481111561435e5761435d6145a3565b5b81810290505b9392505050565b600061437682614463565b915061438183614463565b9250817fffffffffffffffffffffffffffffffffffffffffffffffffffffffffffffffff04831182151516156143ba576143b96145a3565b5b828202905092915050565b60006143d082614463565b91506143db83614463565b9250828210156143ee576143ed6145a3565b5b828203905092915050565b600061440482614443565b9050919050565b60008115159050919050565b60007fffffffff0000000000000000000000000000000000000000000000000000000082169050919050565b600073ffffffffffffffffffffffffffffffffffffffff82169050919050565b6000819050919050565b600060ff82169050919050565b82818337600083830152505050565b60005b838110156144a757808201518184015260208101905061448c565b838111156144b6576000848401525b50505050565b600060028204905060018216806144d457607f821691505b602082108114156144e8576144e7614601565b5b50919050565b6144f78261465f565b810181811067ffffffffffffffff8211171561451657614515614630565b5b80604052505050565b600061452a82614463565b91507fffffffffffffffffffffffffffffffffffffffffffffffffffffffffffffffff82141561455d5761455c6145a3565b5b600182019050919050565b6000819050919050565b600061457d82614463565b915061458883614463565b925082614598576145976145d2565b5b828206905092915050565b7f4e487b7100000000000000000000000000000000000000000000000000000000600052601160045260246000fd5b7f4e487b7100000000000000000000000000000000000000000000000000000000600052601260045260246000fd5b7f4e487b7100000000000000000000000000000000000000000000000000000000600052602260045260246000fd5b7f4e487b7100000000000000000000000000000000000000000000000000000000600052604160045260246000fd5b6000601f19601f8301169050919050565b60008160011c9050919050565b7f26746f70547970653d0000000000000000000000000000000000000000000000600082015250565b7f2666616369616c48616972436f6c6f723d000000000000000000000000000000600082015250565b7f455243373231456e756d657261626c653a206f776e657220696e646578206f7560008201527f74206f6620626f756e6473000000000000000000000000000000000000000000602082015250565b7f4552433732313a207472616e7366657220746f206e6f6e20455243373231526560008201527f63656976657220696d706c656d656e7465720000000000000000000000000000602082015250565b7f4552433732313a20746f6b656e20616c7265616479206d696e74656400000000600082015250565b7f26686174436f6c6f723d00000000000000000000000000000000000000000000600082015250565b7f26636c6f746865547970653d0000000000000000000000000000000000000000600082015250565b7f4552433732313a207472616e7366657220746f20746865207a65726f2061646460008201527f7265737300000000000000000000000000000000000000000000000000000000602082015250565b7f4552433732313a20617070726f766520746f2063616c6c657200000000000000600082015250565b7f2668616972436f6c6f723d000000000000000000000000000000000000000000600082015250565b7f4552433732313a206f70657261746f7220717565727920666f72206e6f6e657860008201527f697374656e7420746f6b656e0000000000000000000000000000000000000000602082015250565b7f26636c6f746865436f6c6f723d00000000000000000000000000000000000000600082015250565b7f26736b696e436f6c6f723d000000000000000000000000000000000000000000600082015250565b7f3f00000000000000000000000000000000000000000000000000000000000000600082015250565b7f7b20226e616d65223a2022506c61747a6950756e6b7320230000000000000000600082015250565b7f4552433732313a20617070726f76652063616c6c6572206973206e6f74206f7760008201527f6e6572206e6f7220617070726f76656420666f7220616c6c0000000000000000602082015250565b7f4e6f20506c61747a6950756e6b73206c65667400000000000000000000000000600082015250565b7f4552433732313a2062616c616e636520717565727920666f7220746865207a6560008201527f726f206164647265737300000000000000000000000000000000000000000000602082015250565b7f4552433732313a206f776e657220717565727920666f72206e6f6e657869737460008201527f656e7420746f6b656e0000000000000000000000000000000000000000000000602082015250565b7f266d6f757468547970653d000000000000000000000000000000000000000000600082015250565b7f227d000000000000000000000000000000000000000000000000000000000000600082015250565b7f4552433732313a206d696e7420746f20746865207a65726f2061646472657373600082015250565b7f222c20226465736372697074696f6e223a2022506c61747a692050756e6b732060008201527f6172652072616e646f6d697a6564204176617461616172732073746f7265642060208201527f6f6e20636861696e20746f207465616368204441707020646576656c6f706d6560408201527f6e74206f6e20506c61747a69222c2022696d616765223a202200000000000000606082015250565b7f2667726170686963547970653d00000000000000000000000000000000000000600082015250565b7f4552433732313a20617070726f76656420717565727920666f72206e6f6e657860008201527f697374656e7420746f6b656e0000000000000000000000000000000000000000602082015250565b7f4552433732313a207472616e73666572206f6620746f6b656e2074686174206960008201527f73206e6f74206f776e0000000000000000000000000000000000000000000000602082015250565b7f26657965547970653d0000000000000000000000000000000000000000000000600082015250565b7f4552433732313a20617070726f76616c20746f2063757272656e74206f776e6560008201527f7200000000000000000000000000000000000000000000000000000000000000602082015250565b7f2665796562726f77547970653d00000000000000000000000000000000000000600082015250565b7f6163636573736f72696573547970653d00000000000000000000000000000000600082015250565b7f646174613a6170706c69636174696f6e2f6a736f6e3b6261736536342c000000600082015250565b7f4552433732313a207472616e736665722063616c6c6572206973206e6f74206f60008201527f776e6572206e6f7220617070726f766564000000000000000000000000000000602082015250565b7f455243373231456e756d657261626c653a20676c6f62616c20696e646578206f60008201527f7574206f6620626f756e64730000000000000000000000000000000000000000602082015250565b7f2666616369616c48616972547970653d00000000000000000000000000000000600082015250565b7f455243373231204d657461646174613a2055524920717565727920666f72206e60008201527f6f6e6578697374656e7420746f6b656e00000000000000000000000000000000602082015250565b614e81816143f9565b8114614e8c57600080fd5b50565b614e988161440b565b8114614ea357600080fd5b50565b614eaf81614417565b8114614eba57600080fd5b50565b614ec681614463565b8114614ed157600080fd5b5056fe4142434445464748494a4b4c4d4e4f505152535455565758595a6162636465666768696a6b6c6d6e6f707172737475767778797a303132333435363738392b2fa264697066735822122015812fc648e4d41b9c11e5e1cfad22d2dca9881977a9b909ee06873b84cef31e64736f6c63430008040033",
  "linkReferences": {},
  "deployedLinkReferences": {}
}